:100000000C9425050C946C050C946C050C946C05F3
:100010000C946C050C946C050C946C050C946C059C
:100020000C946C050C946C050C949B0C0C946E0D4C
:100030000C94841C0C946C050C946C050C946C054D
:100040000C946C050C946C050C946C050C946C056C
:100050000C946C050C94F81C0C946C050C946C05B9
:100060000C946C050C946C050C946C050C946C054C
:100070000C946C050C946C050C946C050C946C053C
:100080000C946C050C946C050C946C050C946C052C
:100090000C946C050C946C050C946C050C946C051C
:1000A0000C946C050C946C050C946C05141A082BBC
:1000B0001518171C12132F0C3080314C1E1F2035C1
:1000C0002124222326272D252E802A49807B7A78F9
:1000D0008080802C7E807C807F51504F801D1B79DA
:1000E00006111905363738107D52808004160739FD
:1000F000090D0A0B0F33340E8080288080808080A9
:1001000080808080808080808080808080808080EF
:1001100080808080808080808080808080808080DF
:100120008080808080808080808080804B65796244
:100130006F6172642073746172742E0A00555342A9
:1001400020636F6E666967757265642E0A000D0A1A
:10015000696E69740A005B445D005B435D002C03BB
:1001600046004300360036003000430020004100C6
:100170006C007400200043006F006E007400720079
:100180006F006C006C006500720000000A035400F0
:100190004D004B002E0000000403090409028D00ED
:1001A000050100A03209040000010301010009213A
:1001B000110100012240000705810308000A09041B
:1001C00001000103010200092111010001224D007B
:1001D0000705820308000A09040200010300000069
:1001E0000921110100012236000705830308000AD6
:1001F000090403000203000000092111010001228B
:1002000022000705840320000107050403200001E4
:10021000090404000103000000092111010001226A
:1002200039000705850320000112011001000000BC
:1002300008EDFE0C6600010102000105010906A19E
:1002400001050719E029E7150025019508750181C9
:100250000205081901290595057501910295017599
:100260000391010507190029F71500250195F87577
:10027000018102C00631FF0974A10109751500262C
:10028000FF009520750881020976150026FF00956C
:100290002075089102C005010980A101850216811F
:1002A0000026B7001A81002AB70075109501810059
:1002B000C0050C0901A1018503160100269C021A44
:1002C00001002A9C02751095018100C005010902F8
:1002D000A1010901A1000509190129051500250140
:1002E00095057501810295017503810105010930AC
:1002F00009311581257F9502750881060938158118
:10030000257F950175088106050C0A38021581259F
:100310007F950175088106C0C005010906A1010588
:100320000719E029E7150025019508750181029557
:1003300001750881010508190129059505750191C7
:10034000029501750391010507190029FF15002683
:10035000FF00950675088100C0636F6E73756D654B
:10036000723A20253034580A0073797374656D3AF7
:1003700020253034580A000A002530325820006BFE
:100380006579626F6172643A20004C45443A2025D9
:100390003032580A00253032583A20253031366242
:1003A00025730A00722F63203031323334353637EB
:1003B00038394142434445460A0064656C5F6B65C9
:1003C000795F6269743A2063616E27742064656C9A
:1003D0003A20253032580A006164645F6B65795FAA
:1003E0006269743A2063616E2774206164643A2004
:1003F000253032580A004F6E6573686F743A207466
:10040000696D656F75740A00290A002575002F0053
:100410002575005D2800256400200025640020006B
:1004200025640020002564007C0025303258006DD2
:100430006F7573656B6579205B62746E7C7820796B
:10044000207620685D287265702F61636C293A20E0
:100450005B006D6B5F776865656C5F74696D655F88
:10046000746F5F6D6178203D2025640A006D6B5FBD
:10047000776865656C5F6D61785F73706565642032
:100480003D2025640A006D6B5F74696D655F746F54
:100490005F6D6178203D2025640A006D6B5F6D61A2
:1004A000785F7370656564203D2025640A006D6B7C
:1004B0005F696E74657276616C203D2025640A0068
:1004C0006D6B5F64656C6179203D2025640A006D69
:1004D0006B5F776865656C5F74696D655F746F5F8E
:1004E0006D6178203D2025640A006D6B5F7768653B
:1004F000656C5F6D61785F7370656564203D202574
:10050000640A006D6B5F74696D655F746F5F6D6128
:1005100078203D2025640A006D6B5F6D61785F7304
:1005200070656564203D2025640A006D6B5F696E0F
:1005300074657276616C203D2025640A006D6B5FE6
:1005400064656C6179203D2025640A000A002575E8
:1005500000363A20776865656C5F74696D655F7415
:100560006F5F6D61783A20000A00257500353A20EA
:10057000776865656C5F6D61785F73706565643A17
:1005800020000A00257500343A2074696D655F7497
:100590006F5F6D61783A20000A00257500333A20BC
:1005A0006D61785F73706565643A20000A00257597
:1005B00000323A20696E74657276616C286D732919
:1005C0003A20000A00257500313A2064656C617993
:1005D000282A31306D73293A20000A092D205661EE
:1005E0006C756573202D0A004D3E004D25643E203C
:1005F000003F007365742064656661756C740A0061
:10060000433E200077686572652064656C74613ACA
:1006100020637572736F723D25642C207768656561
:100620006C3D25640A53656520687474703A2F2FF9
:10063000656E2E77696B6970656469612E6F72678C
:100640002F77696B692F4D6F7573655F6B65797374
:100650000A000A092D204D6F7573656B6579202D91
:100660000A4553432F713A09717569740A313A0981
:1006700064656C6179282A31306D73290A323A0930
:10068000696E74657276616C286D73290A333A0954
:100690006D61785F73706565640A343A0974696DD9
:1006A000655F746F5F6D61780A353A0977686565D3
:1006B0006C5F6D61785F73706565640A363A0977BF
:1006C0006865656C5F74696D655F746F5F6D617897
:1006D0000A0A703A097072696E742076616C7565E9
:1006E000730A643A097365742064656661756C7495
:1006F000730A75703A092B310A646F776E3A092DC7
:10070000310A706775703A092B31300A7067646F6F
:10071000776E3A092D31300A0A7370656564203DA1
:100720002064656C7461202A206D61785F73706548
:100730006564202A2028726570656174202F2074FA
:10074000696D655F746F5F6D6178290A003F004DC8
:100750003E2000433E20004C25640A000A092D205B
:10076000436F6E736F6C65202D0A4553432F713AAA
:1007700009717569740A6D3A096D6F7573656B65FA
:10078000790A000A092D204D61676963202D0A64EA
:100790003A0964656275670A783A09646562756743
:1007A000206D61747269780A6B3A096465627567D5
:1007B000206B6579626F6172640A6D3A09646562E3
:1007C0007567206D6F7573650A763A097665727381
:1007D000696F6E0A733A097374617475730A633AC8
:1007E00009636F6E736F6C65206D6F64650A302DE1
:1007F000343A096C61796572302D34284631302DD8
:100800004634290A506175733A09626F6F746C6FD0
:10081000616465720A6E3A094E4B524F0A003F00FE
:100820004E4B524F3A206F66660A004E4B524F3A7B
:10083000206F6E0A0074696D65725F726561643362
:100840003228293A202530346C580A006B657962C9
:100850006F6172645F6E6B726F3A2025580A006B8D
:100860006579626F6172645F69646C653A202558CE
:100870000A006B6579626F6172645F70726F746F8A
:10088000636F6C3A2025580A00686F73745F6B655C
:1008900079626F6172645F6C65647328293A202500
:1008A000580A000A092D20537461747573202D0AAB
:1008B000004743433A20372E332E30204156522DE5
:1008C0004C4942433A20322E302E30204156525F5E
:1008D000415243483A20617672350A004F505449DC
:1008E0004F4E533A204C554641204D4F5553454BA2
:1008F00045592045585452414B455920434F4E537A
:100900004F4C4520434F4D4D414E44204E4B524F8E
:10091000204B45594D41505F53454354494F4E205C
:10092000343039360A004255494C443A2065633820
:100930006461356639202831383A33383A30392005
:100940004A756E2020382032303138290A00564945
:10095000443A2030784645454428544D4B2E2920B2
:100960005049443A203078363630432846433636AC
:10097000304320416C7420436F6E74726F6C6C65F1
:100980007229205645523A203078303130300A00F2
:10099000444553433A20544D4B2E206B6579626F8A
:1009A000617264206669726D7761726520666F722C
:1009B000204643363630430A000A092D2056657218
:1009C00073696F6E202D0A000A6D6F7573653A208A
:1009D0006F66660A000A6D6F7573653A206F6E0A5E
:1009E000000A6B6579626F6172643A206F66660A0D
:1009F000000A6B6579626F6172643A206F6E0A005B
:100A00000A6D61747269783A206F66660A000A6D31
:100A100061747269783A206F6E0A000A64656275C3
:100A2000673A206F6E0A000A64656275673A206F44
:100A300066660A000A0A626F6F746C6F61646572A1
:100A40002E2E2E2000433E20000011241FBECFEF8B
:100A5000DAE0DEBFCDBF04B603FE27C080919E0260
:100A600090919F02A091A002B091A1028730904B7B
:100A7000A740B04BD1F410929E0210929F021092A8
:100A8000A0021092A10214BE84B7877F84BF0FB664
:100A9000F894A8958091600088618093600010921E
:100AA00060000FBEE0E0F8E3099511E0A0E0B1E0DE
:100AB000EAEBFAE402C005900D92A833B107D9F72A
:100AC00022E0A8E3B1E001C01D92AE39B207E1F720
:100AD0000E94C6090C945B250C940000FF93EF93D1
:100AE000E0913801F0913901309709F00995EF91C3
:100AF000FF910895FC018591803011F0EFDFFBCF6D
:100B00000895FF27E0E230E247FF0CC0419597FFD0
:100B100009C0EDE26095709580959095611D711DFD
:100B2000811D911D27FF02C0219530E350E2AA27C5
:100B3000660F771F881F991FAA1FA41710F0A41B08
:100B400063955A95A9F7AA3008F0A95FA05DAF9305
:100B5000F395611571058105910541F7ED3211F4A9
:100B6000EF93F395F21718F43F93F395FBCF8F9122
:100B7000B5DFFA95E1F70895E991F9918591803013
:100B800021F0853219F0AADFF9CF089520E0E8942A
:100B900055915532C1F3503311F4689455915A333D
:100BA00048F4505390F3220F022E220F220F200DF3
:100BB000250FF4CF0EF4219589919991533619F3AD
:100BC000533729F1533559F1BC0188279927E89407
:100BD0005C3621F48991999168945591543639F491
:100BE00046EF7EF077FF0DC08FEF9FEF0AC05537BD
:100BF0004AE039F0583540E121F0523642E009F040
:100C00000895FF93EF937DDFEF91FF91B7CFFF93AF
:100C1000EF93FC0181918030B9F360DFFBCFFF934C
:100C2000EF9368DFF1CFDF93CF93CDB7DEB7259693
:100C3000A3DFCF91DF91089584B18F6184B93E988D
:100C4000469A3F9A8AB1806F8AB95F9A479884B171
:100C5000806684B985B1806685B9AAE4B1E0119651
:100C60001C921E9213961C921E92129715961C921D
:100C70001E92149717961C921E92169719961C9204
:100C80001E9218971B961C921E921A971D961C92E4
:100C90001E921C971F961C921E921E97EAE3F1E08B
:100CA0001182108213821282158214821782168298
:100CB0001186108613861286158614861786168668
:100CC000B0935D01A0935C01F0935B01E0935A0146
:100CD0000895AF92BF92CF92DF92EF92FF920F935F
:100CE0001F93CF93DF9380915A0190915B012091E4
:100CF0005C0130915D0130935B0120935A01909328
:100D00005D0180935C01F12CE12CC1E0D0E00FEF9C
:100D100010E095B1907E28E0E3FC20E18E2D8770F5
:100D2000892B822B85B9AE010E2C02C0440F551FB2
:100D30000A94E2F7BA016095709530E020E0D12C7A
:100D40008BB18F7080688D298BB98AE08A95F1F715
:100D500000C0E0915A01F0915B01E20FF31F808126
:100D6000918184239523892B09F0479A95E39A95DD
:100D7000F1F70000C6B45F988AE08A95F1F700C0E9
:100D8000E0915C01F0915D01DF01A20FB31F369B82
:100D900059C08D919C911197862397238D939C9395
:100DA00086B5AC2DB0E08C1508F452C086B590E045
:100DB0008A1B9B0B069760F0A0915A01B0915B01D2
:100DC000A20FB31F8D919C91E20FF31F918380833B
:100DD0008AE18A95F1F700C047985F9A8BE291E02B
:100DE0000197F1F700C0000090E1D90E2E5F3F4F50
:100DF00080E8A82EDA10A4CFA0915C01B0915D012B
:100E0000E0915A01F0915B0150962D913C918089BF
:100E100091892817390711F00E94C21C8FEFE81A38
:100E2000F80A90E1E916F10409F073CF81E0DF914F
:100E3000CF911F910F91FF90EF90DF90CF90BF90D7
:100E4000AF9008958D919C911197842B952BA6CFEF
:100E500086B55801AA1ABB0A8A0D9B2D911DAACFEF
:100E600090E0880F991F20915C0130915D01820F05
:100E7000931FFC0180819181089581FF02C02E980B
:100E800008952E9A08958091820108959FB7F8944D
:100E9000109261019FBF90919502943009F049C072
:100EA0002091E9002F709091EC0090FD30C090E00F
:100EB000922B24E02093E9002091EB0020FF36C024
:100EC0002091EE0027FF32C020915E01222321F005
:100ED0002091E80025FF2AC010925E0126E03091A3
:100EE000E80035FF16C08093F1008091E80085FD91
:100EF00029C08091E80080FFFCCF8091E8008E77C8
:100F00008093E8009F709093E90080E0089590E856
:100F1000CFCF30919502343049F43091EB0035FD5C
:100F200005C0215041F481E080935E019F70909351
:100F3000E9008FEF0895EFE9FFE03197F1F700C086
:100F40000000CDCF8FB7F89421E0209361018FBFCF
:100F5000D9CFCF93DF9300D01F92CDB7DEB79C01DE
:100F600080919502843019F593E099833B832A831D
:100F70009093E9008FEF9091E800815095FD06C0B5
:100F800095ED9A95F1F700008111F5CF8091E80079
:100F900085FF0DC050E040E063E070E0CE010196B7
:100FA0000E94900A8091E8008E778093E8000F906D
:100FB0000F900F90DF91CF910895CF93DF9300D0E2
:100FC0001F92CDB7DEB720919502243021F522E0A3
:100FD00029839B838A8383E08093E9008FEF90913C
:100FE000E800815095FD06C095ED9A95F1F7000057
:100FF0008111F5CF8091E80085FF0DC050E040E001
:1010000063E070E0CE0101960E94900A8091E800B2
:101010008E778093E8000F900F900F90DF91CF9123
:1010200008959C01809195028430F9F482E08093C8
:10103000E9009FEF8091E800915085FD06C085EDA5
:101040008A95F1F700009111F5CF8091E80085FFB6
:101050000CC050E040E065E070E0C9010E94900AD9
:101060008091E8008E778093E8000895CF93DF9316
:10107000EC01809195028430F9F480910A01882373
:10108000F1F080910B018823D1F085E08093E90095
:101090008FEF9091E800815095FD06C09AE29A95F5
:1010A000F1F700C08111F5CF8091E80050E040E0F9
:1010B00060E270E085FD1AC0DF91CF91089581E074
:1010C0008093E9008FEF9091E800815095FD06C074
:1010D00095ED9A95F1F700008111F5CF8091E80028
:1010E00085FFEACF50E040E068E070E0CE010E946A
:1010F000900A8091E8008E778093E80080E2FE01FC
:10110000A2E6B1E001900D928A95E1F7D5CF8AE58C
:1011100091E00E947A0580919402811109C00E9499
:10112000200C0E947D0C8091E20084608093E2009C
:10113000089586E591E00E947A0510929402089540
:10114000089520915F012F5F822F62E30E94212585
:10115000992319F020935F01089510925F01809107
:1011600061018823E9F0809195028430B9F490916F
:10117000E9009F708091EC0080FD13C080E0892B16
:1011800094E09093E9009091EB0090FF04C090915F
:10119000EE0097FD0AC08F708093E9001092610104
:1011A000089580E8ECCF1092F1009091E80095FD51
:1011B000FACF9091E80090FFEECF9091E8009E77F3
:1011C0009093E800E8CF42E061EC81E00E949E0B42
:1011D00042E061EC82E00E949E0B42E061EC83E021
:1011E0000E949E0B42E261EC84E00E949E0B42E270
:1011F00061EC85E00C949E0B80919702833009F49A
:1012000055C030F4813071F1823009F491C00895F5
:101210008A3009F47DC08B3009F463C0893009F04D
:1012200044C080919602813209F03FC080919A02B9
:1012300090919B02009711F00497B9F58091E80016
:10124000877F8093E8008091E80082FF2AC0809128
:10125000F100809382018091E8008B778093E80011
:101260000C94D20B80919602813AF9F48091E800B7
:10127000877F8093E80080919A0290919B02892B4E
:1012800061F460E282E691E070E00E94DF0A809102
:10129000E8008B778093E800089560E090E080E0BC
:1012A000F3CF809195028111CECF0895809196025F
:1012B000813AD9F780919A0290919B02892BA9F7E4
:1012C0008091E800877F8093E8008091E80080FFAC
:1012D000FCCF80910A018093F1008091E8008E7725
:1012E000BDCF80919602813201F780919A02909150
:1012F0009B02892BD1F68091E800877F8093E800DC
:101300000E94D20B8091980280930A010C94D2140F
:1013100080919602813249F68091E800877F809320
:10132000E8000E94D20B8091990280938301089576
:1013300080919602813A09F0B8CF8091E800877FCA
:101340008093E8008091E80080FFFCCF80918301CA
:10135000C2CF089508958091820180936001109218
:10136000820180E00E943D070E9480100C94D214FC
:101370000C94AB090E94421C80919302882329F0AF
:101380000E946B1C81110C947A0A089584B7877FA0
:1013900084BF0FB6F894A89580916000886180930F
:1013A0006000109260000FBE80E890E00FB6F894E5
:1013B00080936100909361000FBE86E497E00E94E5
:1013C000041C8EE491E00E947A050E94A9090E9403
:1013D000C00F0E94200C0E947D0C8091E20084606E
:1013E0008093E2007894809195028430E1F781ED5A
:1013F00097E00197B9F48DE391E00E947A050E948D
:10140000C20F80E091E00E94FE0E8CE291E00E940B
:101410007A050E94AA0980919502853051F00E94B8
:10142000C60FF9CFEFE9FFE03197F1F700C00000F8
:10143000E0CF0E94BA09EFCF0E94801C809160012A
:101440008093820108950C941C0A292F332723309E
:10145000310579F158F421303105F1F022303105B0
:1014600019F190E080E030E020E01AC0213231052F
:1014700099F122323105A9F7653098F770E0FB0148
:10148000EE0FFF1FE75EFE4F208131816C5E7E4FC5
:10149000FB01808190E004C082E190E029E232E02B
:1014A000FA013183208308958DE890E02CE931E042
:1014B000F7CF99278130910561F028F0029789F6DE
:1014C000EEE5F1E002C0E8E9F1E0849190E09F01EF
:1014D000E7CFECE8F1E0F9CF653008F0C2CFE62FB6
:1014E000F0E0EE0FFF1FED5DFE4F2081318189E0BE
:1014F00090E0D6CF80E189BD82E189BD09B400FECC
:10150000FDCF8091D8008F7D8093D8008091E0003E
:1015100082608093E0008091E00081FDFCCF08951F
:10152000AF92BF92CF92DF92FF920F931F93CF9310
:10153000DF936C01EB018A010E94F10BF82E8111FF
:1015400023C00115110539F0F80180819181C81B74
:10155000D90BC80ED91EB12CA12C2097A9F08091CF
:10156000E80085FD22C08091E8008E778093E80036
:1015700001151105A1F0F80180819181A80EB91E15
:10158000B182A08285E0F82E8F2DDF91CF911F913F
:101590000F91FF90DF90CF90BF90AF9008950E9481
:1015A000F10B8823D1F2F82EEFCFF60181916F0174
:1015B0008093F1002197FFEFAF1ABF0ACECFFC0155
:1015C00080919C0290919D0286179707A0F061156B
:1015D000710529F49091E8009E779093E80090E0DF
:1015E0006115710551F4911108C08091E80082FFE6
:1015F00035C080E00895BC01F2CF80919502882328
:10160000C9F18530C9F18091E80083FD31C0809136
:10161000E80082FDEACF8091E80080FFE1CF2091D1
:10162000F3008091F200322F282F6115710519F017
:101630002830310558F091E02830310509F090E06C
:101640002091E8002E772093E800CACF8191809303
:10165000F100615071092F5F3F4FE7CF80919502F4
:10166000882341F0853041F08091E80083FFBDCFB1
:1016700081E0089582E0089583E00895FC0180915F
:101680009C0290919D0286179707A0F06115710545
:1016900029F48091E8008E778093E80090E061154E
:1016A000710551F4911108C08091E80082FF36C0A5
:1016B00080E00895BC01F2CF809195028823D1F19A
:1016C0008530D1F18091E80083FD32C08091E8003F
:1016D00082FDEACF8091E80080FFE1CF2091F30006
:1016E0008091F200322F282F6115710519F02830F2
:1016F000310558F091E02830310509F090E08091F3
:10170000E8008E778093E800CACF84918093F1003F
:101710003196615071092F5F3F4FE6CF809195025E
:10172000882341F0853041F08091E80083FFBCCFF1
:1017300081E0089582E0089583E00895982F97301E
:1017400028F08F708093E90081E008959093E9007C
:10175000242F762F50E0981731F07091EC002091F3
:10176000ED005091F00021FD02C09F5FE8CF309165
:10177000EB003E7F3093EB003091ED003D7F3093E6
:10178000ED003091EB0031603093EB007093EC0092
:101790002093ED005093F0002091EE0027FDE5CF5F
:1017A00080E008958091960287FF13C08091E80041
:1017B00082FF06C08091E8008B778093E80004C028
:1017C000809195028111F2CF08958091950288232E
:1017D000D9F38091E80080FFF8CF8091E8008E7700
:1017E000ECCF2091E4003091E50085E69091EC008B
:1017F00090FF06C09091E80090FF06C080E0089539
:101800009091E80092FDFACF90919502992391F082
:10181000953091F09091EB0095FD10C04091E4005F
:101820005091E5002417350709F381509A01F1F62C
:1018300084E0089582E0089583E0089581E00895AA
:101840000E948E0C0E94960CE0EEF0E08081816098
:101850008083E8EDF0E080818F77808319BCA7ED6D
:10186000B0E08C918E7F8C9380818F7E80831092EC
:10187000940208950F931F93CF93DF930E948E0CD1
:101880000E94960CC8EDD0E088818F77888388818C
:101890008068888388818F7D888319BC1092950227
:1018A00010929102109293021092920200EE10E0B8
:1018B000F80180818B7F808388818160888342E00A
:1018C00060E080E00E949E0BE1EEF0E080818E7F80
:1018D0008083E2EEF0E08081816080838081886097
:1018E0008083F80180818E7F8083888180618883F6
:1018F000DF91CF911F910F910895E8EDF0E0808185
:101900008F7E8083E7EDF0E080818160808384E0DA
:1019100082BF81E0809394020C943A0CE8EDF0E0F1
:1019200080818E7F80831092E20008951092DA0009
:101930001092E10008951F920F920FB60F9211249A
:101940002F933F934F935F936F937F938F939F93C7
:10195000AF93BF93EF93FF938091E10082FF0BC0A1
:101960008091E20082FF07C08091E1008B7F80932D
:10197000E1000E94A1088091DA0080FF19C08091E7
:10198000D80080FF15C08091DA008E7F8093DA0046
:101990008091D90080FF94C080E189BD82E189BD3A
:1019A00009B400FEFDCF81E0809395020E94870874
:1019B0008091E10080FF19C08091E20080FF15C096
:1019C0008091E2008E7F8093E2008091E20080614E
:1019D0008093E2008091D80080628093D80019BC87
:1019E00085E0809395020E94B8098091E10084FF10
:1019F00029C08091E20084FF25C080E189BD82E199
:101A000089BD09B400FEFDCF8091D8008F7D809301
:101A1000D8008091E1008F7E8093E1008091E20008
:101A20008F7E8093E2008091E20081608093E200EB
:101A300080919102882309F449C084E08093950243
:101A40000E94230A8091E10083FF29C08091E20077
:101A500083FF25C08091E100877F8093E10082E0D1
:101A600080939502109291028091E1008E7F809385
:101A7000E1008091E2008E7F8093E2008091E2009D
:101A800080618093E20042E060E080E00E949E0B73
:101A90008091F00088608093F0000E94A008FF9180
:101AA000EF91BF91AF919F918F917F916F915F91D6
:101AB0004F913F912F910F900FBE0F901F9018954F
:101AC00019BC109295020E94990872CF8091E30090
:101AD00087FD02C081E0B2CF83E0B0CF1F920F92AA
:101AE0000FB60F9211242F933F934F935F936F93F1
:101AF0007F938F939F93AF93BF93CF93EF93FF9376
:101B0000C091E900CF708091EC001092E9008091C3
:101B1000F000877F8093F00078940E94AA0D1092C5
:101B2000E9008091F00088608093F000C093E900A4
:101B3000FF91EF91CF91BF91AF919F918F917F9145
:101B40006F915F914F913F912F910F900FBE0F902A
:101B50001F9018951F93CF93DF93CDB7DEB7AA9749
:101B60000FB6F894DEBF0FBECDBFE6E9F2E080917C
:101B7000F100819322E0EE39F207C9F70E94FC08D8
:101B80008091E80083FF42C0809196029091970275
:101B90009A3008F03BC0E92FF0E0EF52F24F0C947E
:101BA0004125DB0DFF0D060EFF0D060E5A0E7C0EB5
:101BB000060ED10EDE0E803879F0823839F580912C
:101BC0009A028F708093E9008091EB0085FB882753
:101BD00080F91092E90006C08091920290919302E0
:101BE000911182609091E800977F9093E800809334
:101BF000F1001092F1008091E8008E772DC0282F1F
:101C00002D7F21F48823D1F0823059F18091E800B2
:101C100083FF0AC08091E800877F8093E80080916D
:101C2000EB0080628093EB00AA960FB6F894DEBFBB
:101C30000FBECDBFDF91CF911F9108958091980283
:101C4000813021F7933009F080E080939302109265
:101C5000E9008091E800877F8093E8000E94D20B22
:101C6000D5CF809198028111F2CF80919A028F7026
:101C700069F28093E9002091EB0020FFE8CF9330D8
:101C800031F48091EB0080628093EB00E0CF909183
:101C9000EB0090619093EB0021E030E001C0220F57
:101CA0008A95EAF72093EA001092EA008091EB000F
:101CB0008860EACF8111AACF109198021F77809196
:101CC000E3008078812B8093E3008091E800877F98
:101CD0008093E8000E94D20B8091E80080FFFCCF47
:101CE0008091E30080688093E30083E0111101C0DC
:101CF00082E0809395028ACF8058823008F086CFA8
:101D000080919802909199028C3D23E09207A1F571
:101D100083E08A838AE289834FB7F894DE011396C1
:101D200020E03EE051E2E32FF0E050935700E491D1
:101D300020FF03C0E295EF703F5FEF708E2F90E0C1
:101D4000EA30C0F0C7968D939D932F5F243159F7E9
:101D50004FBF8091E800877F8093E8006AE270E0DF
:101D6000CE0101960E94DF0A8091E8008B77809374
:101D7000E8004CCFC096E7CFAE014F5F5F4F609158
:101D80009A020E94250ABC01892B09F43FCF909149
:101D9000E800977F9093E80089819A810E943E0B2A
:101DA000E3CF803809F032CF8091E800877F8093BD
:101DB000E800809191028093F1001DCF811126CF20
:101DC00090919802923008F021CF8091E800877FAF
:101DD0008093E800909391020E94D20B809191022F
:101DE000882331F084E0809395020E94E3080ECFAF
:101DF0008091E30087FDF6CF81E0F5CF90938901D4
:101E0000809388010895E0918801F09189013097CD
:101E100021F00190F081E02D099480E00895EF9287
:101E2000FF920F931F93CF93DF938C01E091880172
:101E3000F09189013097C1F10280F381E02D09957D
:101E40008091800282FF30C080FF04C08FE793E062
:101E50000E947A05D0E0C0E089E7E82E83E0F82E02
:101E60008091800280FF0EC0F801EC0FFD1F808181
:101E70001F928F93FF92EF920E9413060F900F9084
:101E80000F900F902196C032D10551F780918002BA
:101E900080FF0AC087E793E0DF91CF911F910F91F8
:101EA000FF90EF900C947A05DF91CF911F910F91E5
:101EB000FF90EF900895E0918801F09189013097AB
:101EC00021F00480F581E02D09940895CF93DF93EC
:101ED000EC0180918601909187018C179D0701F19B
:101EE000D0938701C0938601E0918801F091890128
:101EF0003097B1F00680F781E02DCE0109958091F1
:101F000080028570853061F4DF93CF9389E693E09A
:101F10009F938F930E9413060F900F900F900F9036
:101F2000DF91CF910895CF93DF93EC0180918401ED
:101F3000909185018C179D0701F1D0938501C09385
:101F40008401E0918801F09189013097B1F000841B
:101F5000F185E02DCE010995809180028570853054
:101F600061F4DF93CF9389E593E09F938F930E9471
:101F700013060F900F900F900F90DF91CF9108955F
:101F80000C9481100E94AD1C0C941C068F929F92A1
:101F9000AF92BF92CF92DF92EF92FF920F931F9377
:101FA000CF93DF9300D000D01F92CDB7DEB70E9451
:101FB00069062BE8E22E21E0F22E10E0812F0E942C
:101FC00030074C01F701A080B180A816B906C9F10D
:101FD0008091800281FD0E94821000E0CC24C39495
:101FE000D12CA824B924C5018C219D21892B21F154
:101FF00009831A8321E0C4018C219D21892B09F4D6
:1020000020E02B830E94B61C8160782F9D838C83F7
:1020100049815A816B818D810E94B81049815A8112
:102020006B817C818D810E942F1CF70180819181C1
:102030008C259D25918380830F5FCC0CDD1C0031A6
:1020400091F61F5FF2E0EF0EF11C183009F0B6CFE9
:102050008FEF89838A831B820E94B61C8160782F50
:102060009D838C8349815A816B818D810E94B81038
:102070000E942E1C0E947A1F0E94030F90918A01D9
:10208000891751F10E94030F80938A019091800279
:102090009570953061F41F928F938AE893E09F9337
:1020A0008F930E9413060F900F900F900F908091C6
:1020B0008A010F900F900F900F900F90DF91CF91AA
:1020C0001F910F91FF90EF90DF90CF90BF90AF9056
:1020D0009F908F900C94401C0F900F900F900F903A
:1020E0000F90DF91CF911F910F91FF90EF90DF90B4
:1020F000CF90BF90AF909F908F9008950C943D0724
:1021000008950895EF92FF920F931F93CF93DF935B
:1021100084EA93E00E947A05D0E0C0E08DE2E82EE8
:1021200081E0F82E05E913E08C2F0E9430070E9411
:10213000211CFF92EF929F938F93DF93CF931F9376
:102140000F930E94130621968DB79EB708960FB67F
:10215000F8949EBF0FBE8DBFC830D10529F7DF911F
:10216000CF911F910F91FF90EF90089508950895DA
:10217000CF93DF93CDB7DEB72B970FB6F894DEBFC2
:102180000FBECDBF942F4F83252F588769877A873D
:102190008B874A855B8581E0452B31F02F3F19F411
:1021A00081E09F3F09F080E080FD07C04F815885A6
:1021B00069857A858B850E942F1C1E821D8285E091
:1021C000FE013796DE01119601900D928A95E1F796
:1021D00049815A816B817C818D819E812B960FB6BE
:1021E000F894DEBF0FBECDBFDF91CF910C94C61720
:1021F000CF93C82F882309F45AC08CEF8C0F813AF3
:1022000020F080E58C0F8E3258F48C2F0E94A5228E
:1022100081114DC08C2F0E94C61ACF910C94AF1B18
:1022200080E28C0F883048F4C77081E001C0880FCD
:10223000CA95EAF70E946A1BF0CF8BE58C0F8330BA
:1022400068F481E890E0C53A31F083E890E0C63A5E
:1022500011F482E890E0CF910C94660F88E58C0F22
:10226000853128F582EE90E0C83AF1F089EE90E0F1
:10227000C93AD1F08AEE90E0CA3AB1F085EB90E02D
:10228000CB3A91F086EB90E0CC3A71F083EB90E0A2
:10229000CD3A51F084EB90E0CE3A31F090E080E01E
:1022A000CF3A11F487EB90E0CF910C94930FCF913C
:1022B0000895882349F19CEF980F913A20F090E51A
:1022C000980F9E3220F40E94141B0C94AF1B90E2D6
:1022D000980F983050F4877091E001C0990F8A955B
:1022E000EAF7892F0E94701BF0CF9BE5980F93307F
:1022F00020F490E080E00C94660F885A853120F439
:1023000090E080E00C94930F0895882321F00E94C0
:102310006A1B0C94AF1B0895882321F00E94701B48
:102320000C94AF1B0895AF92BF92CF92DF92EF92C1
:10233000FF920F931F93CF93DF9300D000D01F9293
:10234000CDB7DEB75C0185E0F501DE0111960190A5
:102350000D928A95E1F7F501408151812381348105
:1023600081E02115310531F05F3F19F481E04F3FE5
:1023700009F080E080FDC5C0F501F280E580E294BF
:102380006FE0E622722F3D832C836F2D8D810E949A
:102390001D1A8C010E941C1A0E940E19E12FE29551
:1023A000EF70F0E0EA52FE4E0C944125E611E61182
:1023B00023122312B412E912811281120213811224
:1023C000EE13EE13941481128112AB14F12FFF70EF
:1023D000EF2E107F19F0E29490EFE922FF20C9F070
:1023E000EE2029F08E2D0E947E1B0E94AF1B802FB5
:1023F0000F900F900F900F900F90DF91CF911F9142
:102400000F91FF90EF90DF90CF90BF90AF900C9422
:10241000F810802F0E945911EE2009F472C08E2D01
:102420000E94841B0F900F900F900F900F90DF91E0
:10243000CF911F910F91FF90EF90DF90CF90BF90C1
:10244000AF900C94AF1B812F8F70D82E107F10325D
:1024500019F0D29480EFD822002379F0013009F4EA
:1024600060C0FF2009F46CC0EE2059F0F5018581B1
:1024700080FFBDCF8F70858304C0FF2049F1E1103C
:1024800012C08D2D0F900F900F900F900F90DF9135
:10249000CF911F910F91FF90EF90DF90CF90BF9061
:1024A000AF900C948511E1E08D2DEE12EBCF0F90E3
:1024B0000F900F900F900F90DF91CF911F910F9180
:1024C000FF90EF90DF90CF90BF90AF900C948F1B58
:1024D000E11014C00E94981B8D2D0F900F900F904B
:1024E0000F900F90DF91CF911F910F91FF90EF9080
:1024F000DF90CF90BF90AF900C948C11F1E0EF1271
:10250000E9CF0F900F900F900F900F90DF91CF9128
:102510001F910F91FF90EF90DF90CF90BF90AF9001
:102520000895FF2049F085E08E1558F30E94671B3F
:102530008D2109F4A6CFD0CFE4E0EE1510F3CCCF77
:10254000EE2051F2802F0F900F900F900F900F9070
:10255000DF91CF911F910F91FF90EF90DF90CF907F
:10256000BF90AF900C945911812F869586958370FA
:10257000C9F0813031F6C8019370F11002C090E0CB
:1025800080E00F900F900F900F900F90DF91CF9100
:102590001F910F91FF90EF90DF90CF90BF90AF9081
:1025A0000C94930FC8019370F11002C090E080E08A
:1025B0000F900F900F900F900F90DF91CF911F9180
:1025C0000F91FF90EF90DF90CF90BF90AF900C9461
:1025D000660F802FFF2099F00E94011E0F900F9030
:1025E0000F900F900F90DF91CF911F910F91FF905F
:1025F000EF90DF90CF90BF90AF900C94ED1E0E94B3
:10260000691EECCF812F837009F071C0F11079CF72
:10261000202F229526952770220F220F602F6F7092
:10262000C62ED12CF12CE12C022E04C0CC0CDD1CCA
:10263000EE1CFF1C0A94D2F760E070E0CB0104FFAF
:102640000FC06FE070E080E090E004C0660F771F7D
:10265000881F991F2A95D2F760957095809590955F
:102660001695169513701230C1F060F56C297D290E
:102670008E299F29113051F10F900F900F900F90DC
:102680000F90DF91CF911F910F91FF90EF90DF900E
:10269000CF90BF90AF900C9433196C297D298E296F
:1026A0009F290F900F900F900F900F90DF91CF9177
:1026B0001F910F91FF90EF90DF90CF90BF90AF9060
:1026C0000C944D190E943319C701B6010F900F9059
:1026D0000F900F900F90DF91CF911F910F91FF906E
:1026E000EF90DF90CF90BF90AF900C941919869522
:1026F000FF2011F0812F8170882309F402CF202F51
:10270000229526952770220F220F602F6F70C62EFC
:10271000D12CF12CE12C022E04C0CC0CDD1CEE1CC3
:10272000FF1C0A94D2F760E070E0CB0104FF0FC0F9
:102730006FE070E080E090E004C0660F771F881FB4
:10274000991F2A95D2F7609570958095909516956A
:10275000169513701230C1F060F56C297D298E2911
:102760009F29113051F10F900F900F900F900F9003
:10277000DF91CF911F910F91FF90EF90DF90CF905D
:10278000BF90AF900C94F8196C297D298E299F2950
:102790000F900F900F900F900F90DF91CF911F919E
:1027A0000F91FF90EF90DF90CF90BF90AF900C947F
:1027B0000A1A0E94F819C701B6010F900F900F90E6
:1027C0000F900F90DF91CF911F910F91FF90EF909D
:1027D000DF90CF90BF90AF900C94E619003F09F4C2
:1027E00045C060F480E4800F803228F1FF2009F4B6
:1027F00096C0E110FCCD812F8F715AC0023F09F4C1
:1028000068C008F451C0033F89F7FF2009F476C07F
:10281000812F8F710F900F900F900F900F90DF917D
:10282000CF911F910F91FF90EF90DF90CF90BF90CD
:10283000AF900C946C19C02E812F8F71102F1071D6
:10284000FF2051F00E9481198C2D8295807F1111FB
:1028500019CE802F8F7016CE0E94A2198C2D8295D2
:10286000807F11113ACE802F8F7037CEFF20B9F0C4
:10287000F4E0FE1508F445CE812F8F710F900F9074
:102880000F900F900F90DF91CF911F910F91FF90BC
:10289000EF90DF90CF90BF90AF900C94C51985E07A
:1028A0008E1508F42ECEE8CF812F8F71FF20A9F06E
:1028B0000F900F900F900F900F90DF91CF911F917D
:1028C0000F91FF90EF90DF90CF90BF90AF900C945E
:1028D0008119812F8F71FF2059F30F900F900F9066
:1028E0000F900F90DF91CF911F910F91FF90EF907C
:1028F000DF90CF90BF90AF900C94A2190F900F90E3
:102900000F900F900F90DF91CF911F910F91FF903B
:10291000EF90DF90CF90BF90AF900C946719E110CB
:1029200011CE812F8F71D9CF412F4F70602FC501EC
:102930000E947A1D0F900F900F900F900F90DF91D3
:10294000CF911F910F91FF90EF90DF90CF90BF90AC
:10295000AF900C946F18412F4F70602FC5010F90EE
:102960000F900F900F900F90DF91CF911F910F91CB
:10297000FF90EF90DF90CF90BF90AF900C947D1DB3
:102980000E948C1B0E94591B0E94AF1B0E941C209E
:102990000E94ED1E90E080E00E94660F90E080E0D3
:1029A0000C94930F0E947B1B0C94C0141F93CF9325
:1029B000DF9300D000D01F92CDB7DEB7942F4983AC
:1029C000252F5A836B837C838D834C815D8181E0CD
:1029D000452B31F02F3F19F481E09F3F09F080E053
:1029E000182F117080FD3AC049815A816B817C811A
:1029F0008D810E941D1A292F22952F702C3078F47A
:102A00002A3008F52250223090F0812F0F900F903D
:102A10000F900F900F90DF91CF911F9108952C3060
:102A200011F02F3091F793FB112710F9EECF853A73
:102A300030F4843010F4823030F411E0E6CF90E2CC
:102A4000980F9830D0F3883E30F4803EB0F7845031
:102A5000813AD8F6F2CF803FC1F6EFCF10E0D5CF64
:102A6000CF93DF9300D000D01F92CDB7DEB70F9089
:102A70000F900F900F900F90DF91CF910895CF930B
:102A8000DF9300D000D000D0CDB7DEB726960FB6CA
:102A9000F894DEBF0FBECDBFDF91CF9108951F9395
:102AA000CF93DF93C0919B0116E080919C018C1322
:102AB00004C0DF91CF911F910895D0E01C9FF001D9
:102AC0001D9FF00D1124E356FE4F4081518162811C
:102AD0007381848195810E943F152196C770E5CF4F
:102AE0004091CD015091CE016091CF017091D00104
:102AF0008091D1019091D2010C943F151F93CF93F7
:102B0000DF938091D201807FD1F48091CF0188231F
:102B1000B1F080919B01D0919C01B091CD01C09109
:102B2000CE014091D0015091D101A1E0BF3F09F009
:102B3000A0E0BA016095709516E0D81304C0DF914B
:102B4000CF911F91089521E04115510521F02A2FC1
:102B5000CF3F09F020E090E020FD38C0189FF00141
:102B6000199FF00D1124E356FE4F21812C132EC026
:102B700020812B132BC02281211128C02381348175
:102B80002417350700F1241B350B2C323140F0F4AB
:102B90002091D2012F7020612093D20126E0289F3E
:102BA000F001299FF00D1124EE55FE4F80818F70AA
:102BB000806180838DEC91E00E949311DF91CF9131
:102BC0001F910C944F15260F371FDFCF019687708A
:102BD000B4CFAF92BF92CF92DF92EF92FF920F935A
:102BE0001F93CF93DF93CDB7DEB761970FB6F894FD
:102BF000DEBF0FBECDBF7C0185E0F701DE011D9673
:102C000001900D928A95E1F7D7014C9111965C9154
:102C100011971296DC90129713960D911C9130919A
:102C2000CD016091CE018091D0019091D10121E040
:102C3000009731F06F3F19F421E03F3F09F020E0A9
:102C4000B22FB170BB2E20FD8FC1A090CF01AA2062
:102C500009F42AC10817190758F0F801E81BF90B05
:102C6000CF01CC24C3948C32914058F0C12C09C0C0
:102C700080959095800F911FCC24C3948C32914005
:102C8000A8F78091D201982F907FCC2009F4BFC083
:102C9000911184C0CD2C651325C0341323C0D110ED
:102CA00021C08F7080618093D2010E9470158DECDD
:102CB00091E00E9493118091D201D70115968C93D7
:102CC0008C2D61960FB6F894DEBF0FBECDBFDF919D
:102CD000CF911F910F91FF90EF90DF90CF90BF9019
:102CE000AF90089581E00115110531F05F3F19F4AF
:102CF00081E04F3F09F080E080FD24C081E08D2518
:102D0000B82FB170AB2E80FF3FC080919B01209106
:102D10009C0136E0821318C0702F198B088B6D2D23
:102D200089890E941D1A292F22952F70223000F1C7
:102D3000243028F59F7001F1F7019581907FE1F42F
:102D4000CB2CBECF80E0DCCF90E0389FF001399FE4
:102D5000F00D1124E356FE4F6181561306C06081C9
:102D6000461303C062816D110FC001968770D2CFE8
:102D70009F7011F0882321F3805E883008F3C7012B
:102D80000E949311BA2CDCCFDD2009F499CF8091F9
:102D9000D20181608093D201C12C92CF651306C00D
:102DA000341304C0D701DD2009F4B2C04D875E871B
:102DB000DF86702F198B088B6D2D89890E94D614A0
:102DC000882309F4DFC0DD2009F4DCC08091D20142
:102DD000803270F02091CD013091CE0138872F8361
:102DE00019861B870A878C87CE0107960E9493114C
:102DF00086E0F701ADECB1E001900D928A95E1F724
:102E00000E947E150E947015CC24C39459CF911155
:102E100015C0702F198B088B6D2D89890E94301574
:102E20008DEC91E00E94931186E0EDECF1E0DF0182
:102E30001D928A95E9F70E94701542CF651312C062
:102E4000341310C0D1100EC0F7018583C7010E9452
:102E50009311EDECF1E086E0DF011D928A95E9F730
:102E6000CA2C2ECF4D875E87DF86702F198B088B7B
:102E70006D2D89890E94D614882309F483C0DD2032
:102E800009F480C08091D201803208F4B1CF209142
:102E9000CD013091CE013A8329831B821D830C839F
:102EA0008E83CE010196A2CF0817190780F0F80192
:102EB000E81BF90BCF018C32914080F0C12C702FB0
:102EC000198B088B6D2D89890E943015ADCF8095A7
:102ED0009095800F911F8C32914080F7CD2CDD2092
:102EE00009F450C065132BC0341329C08091D2015E
:102EF00080FD1CC0982F907FC9F0D70115968C9348
:102F00001597903F39F0982F907F905F8F70892BA5
:102F100015968C93C7010E94931186E0F701ADECE2
:102F2000B1E001900D928A95E1F785CF86E0F70137
:102F3000ADECB1E001900D928A95E1F7C1CE4D87DD
:102F40005E87DF86702F198B088B6D2D89890E9413
:102F5000D61481114DCF8091D20181608093D2012E
:102F6000C7010E949311ACCEDD2061F04D875E87D2
:102F7000DF86702F198B088B6D2D89890E94D614DE
:102F8000811136CFC7010E9493113ECF1F93CF937B
:102F9000DF93CDB7DEB72C970FB6F894DEBF0FBE28
:102FA000CDBF4F83588769877A878B879C87CE01EF
:102FB00007960E94E915882309F442C09F818885FD
:102FC0002A853B85232B39F08F3F19F481E09F3F01
:102FD00019F080E001C081E080FD08C04F81588574
:102FE00069857A858B859C850E943F1516E08091C6
:102FF0009B0190919C01891709F467C0819FC001D2
:10300000112483569E4F0E94E915882309F45DC060
:10301000E0919B011E9FF0011124E356FE4F408179
:10302000518162817381848195810E943F158091D5
:103030009B0190E001968770992780939B01D7CFE1
:1030400086E0FE013796DE01119601900D928A9579
:10305000E1F79F8188852A853B85232B39F08F3FB7
:1030600019F481E09F3F19F080E001C081E080FD0C
:10307000BDCF20919C0130E0C9010196877099274E
:1030800040919B014817190699F096E0929FD00154
:10309000939FB00D1124A356BE4FFE0131960190AF
:1030A0000D929A95E1F780939C010E944F159ECF57
:1030B0000E94D21410929C0110929B0186E0EDECCC
:1030C000F1E0DF011D928A95E9F72C960FB6F8948E
:1030D000DEBF0FBECDBFDF91CF911F910895DF926C
:1030E000EF92FF920F931F93CF93DF938C01892B65
:1030F000B9F0E12CF12CDD24D394E8012196F801FC
:103100008491853709F46AC098F4843708F059C06F
:10311000843008F06FC0813011F1823009F43CC076
:10312000DF91CF911F910F91FF90EF90DF90089565
:10313000883709F45CC058F4863709F454C08737DF
:1031400079F78E2D0E94781B0E94AF1B1FC09CE751
:10315000980F903728F78F770E94591117C00E5F8C
:103160001F4FFE01849190E2980F983060F48770B1
:10317000FD2D01C0FF0F8A95EAF78F2F0E947E1B5D
:103180000E94AF1B02C00E94F810E8018F2D8150F1
:1031900008F033C08E01B1CF0E5F1F4FFE01849146
:1031A00090E2980F983050F48770FD2D01C0FF0F0A
:1031B0008A95EAF78F2F0E94841BE2CF0E94591153
:1031C000E4CF0E5F1F4FFE01C491C150F0F28FE9B2
:1031D0009FE00197F1F700C00000F7CF0E5F1F4F8F
:1031E000FE01F490D2CF0E94671BE82ECFCF0E9441
:1031F0007B1BAACF0E94F810C9CFEFE9FFE03197FF
:10320000F1F700C00000C3CF6093530270935402E3
:1032100080935502909356020C943F1C089560933E
:103220005702709358028093590290935A020C945B
:103230003E1C0F931F93009157021091580220914A
:10324000590230915A02602B712B822B932B609381
:103250005702709358028093590290935A021F911B
:103260000F910C943E1C0F931F93009157021091E5
:1032700058022091590230915A026023712382230F
:10328000932360935702709358028093590290934E
:103290005A021F910F910C943E1C0F931F930091A3
:1032A0005702109158022091590230915A0260271A
:1032B0007127822793276093570270935802809357
:1032C000590290935A021F910F910C943E1C60E09A
:1032D00070E0CB010C9404190F931F9341E050E070
:1032E00060E070E08A019B0104C0000F111F221FE3
:1032F000331F8A95D2F7C901B8011F910F910C9421
:1033000004190F931F9341E050E060E070E004C0A7
:10331000440F551F661F771F8A95D2F7809153027D
:1033200090915402A0915502B09156028A019B01DE
:10333000082B192B2A2B3B2BC901B8011F910F9188
:103340000C9404190F931F9341E050E060E070E08B
:1033500004C0440F551F661F771F8A95D2F7CB0113
:10336000BA016095709580959095009153021091E7
:10337000540220915502309156026023712382231A
:1033800093231F910F910C9404190F931F9341E005
:1033900050E060E070E004C0440F551F661F771FC7
:1033A0008A95D2F78091530290915402A0915502D0
:1033B000B09156028A019B01082719272A273B272B
:1033C000C901B8011F910F910C9404190F931F9319
:1033D00000915302109154022091550230915602EF
:1033E000602B712B822B932B1F910F910C9404193E
:1033F0000F931F9300915302109154022091550294
:103400003091560260237123822393231F910F91E1
:103410000C9404190F931F930091530210915402BE
:1034200020915502309156026027712782279327F9
:103430001F910F910C94041908954F925F926F920F
:103440007F929F92AF92BF92CF92DF92EF92FF92C4
:103450000F931F93CF93DF9300D000D01F92CDB76F
:10346000DEB76B837C838D837A018C819D81892B70
:1034700049F08FEFF81204C081E09FEF491719F06F
:1034800080E001C081E080FD6AC00F2D10E0CE2CED
:10349000D12C8B81882309F456C040905302509060
:1034A000540260905502709056028091570290919C
:1034B0005802A0915902B0915A02482A592A6A2A00
:1034C0007B2A2FE1A22EB12C9A2CD301C2010A2C07
:1034D00004C0B695A795979587950A94D2F780FD75
:1034E0002BC081E0A81AB10878F7912CF80194E07C
:1034F000EE0FFF1F9A95E1F7ED52FE4FEC0DFD1D0B
:103500009082E982FA8269817A81892D0F900F90E9
:103510000F900F900F90DF91CF911F910F91FF901F
:10352000EF90DF90CF90BF90AF909F907F906F9083
:103530005F904F900C944D1DB7018A2D0E944D1D38
:10354000019779F2D3CFF80184E0EE0FFF1F8A953F
:10355000E1F7ED52FE4FEC0DFD1D9080D2CF90E0D3
:1035600080E00F900F900F900F900F90DF91CF9110
:103570001F910F91FF90EF90DF90CF90BF90AF9091
:103580009F907F906F905F904F90089590910A0167
:10359000992369F190910B01992349F1E82FE69560
:1035A000E695E695EF3191F020910C0130910D01F7
:1035B000E20FF32FF11D877021E030E001C0220FF0
:1035C0008A95EAF78181822B818308959091800208
:1035D00090FF22C01F928F9388ED93E09F938F936B
:1035E0000E9413060F900F900F900F900895209156
:1035F0000C0130910D01F90132969FEF40E051919D
:10360000851751F09F3F19F4511101C0942F4F5F5E
:103610004E31A9F79F3F09F40895290F311D97FDF9
:103620003A95F9018283089590910A01992379F1DD
:1036300090910B01992359F1E82FE695E695E695CF
:10364000EF31A1F020910C0130910D01E20FF32F29
:10365000F11D282F277081E090E001C0880F2A9586
:10366000EAF7809591818923818308959091800262
:1036700090FF1EC01F928F938AEB93E09F938F93CE
:103680000E9413060F900F900F900F9008952091B5
:103690000C0130910D01F9013296205E3F4F91915E
:1036A000891303C0DF0111971C92E217F307B9F7E2
:1036B000089581E090E0E0910C01F0910D01E80F98
:1036C000F91F1082019680329105A9F70895809123
:1036D0007F02089590917F02892B80937F02089545
:1036E000982F909580917F02892380937F0208957F
:1036F00080937F02089510927F02089590917E0238
:10370000892B80937E020895982F909580917E0258
:10371000892380937E02089510927E0208958093FB
:103720005D020E94B61C90935C0280935B02089538
:1037300010925D0210925C0210925B02089520913B
:103740000C0130910D01F9013196205E3F4F80E070
:10375000919191118F5FE217F307D1F70895E091EE
:103760000C01F0910D0180917F028083E0910C01AA
:10377000F0910D01808190917E02892B8083809150
:103780005D02882381F10E94B61C20915B0230917A
:103790005C028217930768F10E94B61C20915B02BD
:1037A00030915C02821B930B8C32914070F08091BF
:1037B000800280FF08C086EF93E09F938F930E9462
:1037C00013060F900F900E94981BE0910C01F0914E
:1037D0000D01808190915D02892B80830E949F1B47
:1037E00081110E94981B80910C0190910D010C9405
:1037F0000F0F0E94B61C20915B0230915C02209555
:103800003095820F931FD0CF909339018093380168
:103810000895829590E09C01220F331F220F331FE1
:103820002C7C95958795959587958373282B30E00B
:10383000C901880F991F8A7A359527952575822B9E
:103840000895CF93DF93D92F0E94091CC82F8D2F85
:103850000E94091C9C2FDF91CF9108950895CF936A
:10386000DF9300D000D01F92CDB7DEB70F900F903E
:103870000F900F900F90DF91CF91089508950895C4
:103880000C947E1080919502843021F11092810277
:1038900088E190E020E40FB6F894A895809360004A
:1038A0000FBE2093600083B7817F846083BF83B79E
:1038B000816083BF7894889583B78E7F83BF0FB66E
:1038C000F894A895809160008861809360001092C0
:1038D00060000FBE0895CF930E94B6100E94690643
:1038E0000E94B710C0E08C2F0E943007892B31F462
:1038F000CF5FC830C1F780E0CF91089581E0FCCF61
:103900000E9480100C94D2141F920F920FB60F9247
:1039100011248F939F93AF93BF9380918102811164
:1039200013C08091820290918302A0918402B09191
:1039300085024196A11DB11D80938202909383025E
:10394000A0938402B0938502BF91AF919F918F9114
:103950000F900FBE0F901F90189582E084BD93E0EA
:1039600095BD9AEF97BD80936E0008952FB7F89498
:103970008091820290918302A0918402B09185028D
:103980002FBF08952FB7F89460918202709183023F
:1039900080918402909185022FBF0895CF92DF928B
:1039A000EF92FF920F931F932FB7F89440918202EA
:1039B0005091830260918402709185022FBF6A0149
:1039C0007B01EE24FF248C0130E020E0C016D106FC
:1039D000E206F30650F0481B590BCA011F910F91E4
:1039E000FF90EF90DF90CF90089541505109F3CFB1
:1039F0001F920F920FB60F9211248F939F93AF9344
:103A0000BF938091820290918302A0918402B09131
:103A100085020196A11DB11D8093820290938302BD
:103A2000A0938402B0938502BF91AF919F918F9133
:103A30000F900FBE0F901F9018950E94200CF894C5
:103A40002FEF87EA91E6215080409040E1F700C0D7
:103A5000000087E090EBDC0180939E0290939F0230
:103A6000A093A002B093A10288E19CE00FB6F89465
:103A7000A895809360000FBE90936000FFCF20E177
:103A8000929FF0011124E80FF11DE455FF4F94912E
:103A9000892F8F7092959F700895CF93DF93C82FD1
:103AA000CB010E943F1D20E1929FA0011124282FED
:103AB00030E0482B532B4038510529F480E090E04A
:103AC000DF91CF91089588E0C89FE0011124E92F8C
:103AD000E770EC0FFD2FF11D84E0EE0FFF1F8A95BC
:103AE000E1F7E20FF31FEE0FFF1FE050F849859159
:103AF0009491E6CF90E080E0089508958091880247
:103B000080FF12C06091110185E0689FB00111240F
:103B1000759567957595679560387105A8F5611578
:103B20007105A1F1862F089581FF09C060911101EF
:103B300085E0689FB001112475956795EDCF82FFF0
:103B400007C06091110185E0689FB0011124E4CFA6
:103B5000209189022223A9F0909110016091110116
:103B600085E0689FB00111242917B0F6269FA001B7
:103B7000279F500D1124692F70E0CA010E942D2546
:103B8000CBCF65E070E0CECF8FE7089581E0089558
:103B90008091880280FF0CC060910F0170E07595E4
:103BA0006795759567956115710549F1862F08959B
:103BB00081FF06C060910F0170E075956795F3CFA6
:103BC00060910F0182FD0BC0909189029923A1F0B1
:103BD00060910E0180910F01961738F0682F70E008
:103BE0006038710500F38FE70895899FC0011124A3
:103BF00070E00E942D25F4CF61E070E0D7CF81E026
:103C00000895803F31F40E947E1D819580938C023F
:103C10000895813F19F40E947E1DF8CF823F31F450
:103C20000E947E1D819580938B020895833F19F435
:103C30000E947E1DF8CF893F29F40E94C81D809301
:103C40008D0208958A3F21F40E94C81D8195F7CF07
:103C50008B3F31F40E94C81D819580938E02089598
:103C60008C3F19F40E94C81DF8CF843F31F4809135
:103C70008A02816080938A020895853F21F48091B1
:103C80008A028260F7CF863F21F480918A028460A5
:103C9000F1CF873F21F480918A028860EBCF883F83
:103CA00021F480918A028061E5CF8D3F31F48091CB
:103CB000880281608093880208958E3F21F480916C
:103CC00088028260F7CF8F3FB9F7809188028460C5
:103CD000F1CF803FC1F480918C0287FD10928C025D
:103CE00080918B0281110EC080918C0281110AC0DB
:103CF00080918D02811106C080918E02811102C0D7
:103D0000109289020895813F29F480918C0218163F
:103D10002CF3E6CF90918B02823F29F497FFE0CFFE
:103D200010928B02DDCF833F19F41916CCF3D8CF54
:103D3000893F39F480918D02181694F610928D0205
:103D4000CFCF8A3F29F480918D0287FFC9CFF6CF6C
:103D50008B3F39F480918E0287FFC2CF10928E0282
:103D6000BFCF8C3F29F480918E021816BCF3B8CFD8
:103D7000843F31F480918A028E7F80938A02B0CF93
:103D8000853F21F480918A028D7FF7CF863F21F411
:103D900080918A028B7FF1CF873F21F480918A0244
:103DA000877FEBCF883F21F480918A028F7EE5CF19
:103DB0008D3F31F4809188028E7F8093880290CF6E
:103DC0008E3F21F4809188028D7FF7CF8F3F09F0DD
:103DD00087CF809188028B7FF0CF8091800283FF14
:103DE0007EC08FE294E00E947A0580918A021F9241
:103DF0008F938AE294E09F938F930E94130688E248
:103E000094E00E947A0580918B02282F082E000CE6
:103E1000330B3F938F9385E294E09F938F930E949F
:103E2000130683E294E00E947A0580918C02282F89
:103E3000082E000C330B3F938F9380E294E09F9306
:103E40008F930E9413068EE194E00E947A05809180
:103E50008D02282F082E000C330B3F938F938BE19C
:103E600094E09F938F930E94130689E194E00E944F
:103E70007A0580918E02282F082E000C330B3F9379
:103E80008F9386E194E09F938F930E94130683E1C2
:103E900094E00E947A05809189021F928F9380E1BD
:103EA00094E09F938F930E9413068EE094E00E940B
:103EB0007A05809188021F928F938BE094E09F9304
:103EC0008F930E94130688E094E00E947A058DB7D4
:103ED0009EB74C960FB6F8949EBF0FBE8DBF8AE872
:103EE00092E00E945B0F0E94B61C90938702809321
:103EF000860208951F93CF93DF938091860290915D
:103F000087020E94CE1CAC0190918902209112017F
:103F100030E0911106C0209113018AE0289F9001A2
:103F200011244217530780F080918B02C0918C02BC
:103F300010918D02D0918E0281110AC0C11178C0FA
:103F4000111176C0D11174C0DF91CF911F910895E6
:103F50009F3F19F09F5F90938902181624F40E94E6
:103F60007E1D80938B0280918B0287FF05C00E948B
:103F70007E1D819580938B021C1624F40E947E1D69
:103F800080938C0280918C0287FF05C00E947E1D69
:103F9000819580938C0260918B02662331F1C091F0
:103FA0008C02CC2311F1062E000C770B880B990B99
:103FB0000E94282423E333E343E35FE30E948C243D
:103FC0000E94F02360938B026C2FCC0F770B880B31
:103FD000990B0E94282423E333E343E35FE30E9429
:103FE0008C240E94F02360938C02111624F40E940A
:103FF000C81D80938D0280918D0287FF05C00E94AD
:10400000C81D819580938D021D1624F40E94C81D41
:1040100080938E0280918E0287FF05C00E94C81D8A
:10402000819580938E02DF91CF911F910C94ED1EAC
:104030009F3F09F08FCFA0CF85E0EAE8F2E0DF01F3
:104040001D928A95E9F710928902109288020895CC
:1040500082E596E00E947A051F9281E08F931F927D
:1040600085E08F9384E096E09F938F930E941306E0
:104070000F900F900F900F900F900F900895833036
:1040800009F445C028F4813061F0823049F1089587
:10409000853009F46AC008F451C0863009F47CC048
:1040A000089580911301482F460F5527551F4F3F04
:1040B000510594F4680F60931301809113011F92CE
:1040C0008F938DE395E09F938F930E9413060F903B
:1040D0000F900F900F9008958FEF80931301EDCF05
:1040E00080911201482F460F5527551F4F3F51050C
:1040F00054F4680F60931201809112011F928F9304
:104100008BE295E0E0CF8FEF80931201F5CF8091A5
:104110001101482F460F5527551F4F3F510554F4A5
:10412000680F60931101809111011F928F9388E1B4
:1041300095E0C9CF8FEF80931101F5CF80911001E9
:10414000482F460F5527551F4F3F510554F4680F10
:1041500060931001809110011F928F9383E095E08E
:10416000B2CF8FEF80931001F5CF80910F01482FD0
:10417000460F5527551F4F3F510554F4680F609364
:104180000F0180910F011F928F938AEE94E09BCFD5
:104190008FEF80930F01F5CF80910E01482F460FCE
:1041A0005527551F4F3F510554F4680F60930E017A
:1041B00080910E011F928F938FEC94E084CF8FEF4C
:1041C00080930E01F5CF8330C9F128F4813061F07E
:1041D000823019F10895853009F452C008F43FC0C7
:1041E000863009F45EC0089580911301681790F439
:1041F000861B80931301809113011F928F9380EC93
:1042000094E09F938F930E9413060F900F900F904E
:104210000F90089510921301EECF8091120168174C
:1042200050F4861B80931201809112011F928F938C
:104230008EEA94E0E6CF10921201F6CF8091110140
:10424000681750F4861B80931101809111011F9211
:104250008F938BE994E0D5CF10921101F6CF809126
:104260001001681750F4861B809310018091100193
:104270001F928F9386E894E0C4CF10921001F6CF7E
:1042800080910F01681750F4861B80930F01809175
:104290000F011F928F938DE694E0B3CF10920F0120
:1042A000F6CF80910E01681750F4861B80930E01A3
:1042B00080910E011F928F9382E594E0A2CF10921D
:1042C0000E01F6CFCF93C82F1F928F9387E597E00B
:1042D0009F938F930E94130661E070E080E090E06E
:1042E00004C0660F771F881F991FCA95D2F70E94D6
:1042F0000F190F900F900F900F90CF910C94D21434
:10430000CF93873208F050C08E3108F018C1803149
:1043100009F4AAC0F8F4873009F489C048F486305B
:1043200009F472C08EE198E00E947A05C0E027C0CF
:104330008B3009F464C08E30A9F790918002892FE8
:104340008B7F92FF84608093800282FF8AC081EF1E
:1043500099E07EC0863109F4AEC0A0F4813111F736
:104360000E94D214C0910B0181E0C827C0930B01B9
:10437000CC2309F4E1C08BE298E00E947A058C2FEF
:10438000CF910895893109F47FC08B3159F690910E
:104390008002892F8D7F91FF82608093800281FF50
:1043A0005DC08EE09AE054C0883349F158F48932F8
:1043B00029F0853319F0873209F0B4CF80E00E94EC
:1043C000622133C08334D1F328F48A3308F4AACFAE
:1043D0008953F5CF883409F0A5CF0E94D21484E325
:1043E0009AE00E947A052FEF83ED90E32150804000
:1043F0009040E1F700C000000E941D1D16C083E838
:1044000097E00E947A0511C080918002817F8E7FA3
:10441000809380028CE597E00E947A0585E49AE01B
:104420000E947A0581E080939002C1E0A8CF80913C
:10443000800280FF0BC087E29AE00E947A0580919B
:104440008002817F8E7F80938002EFCF8BE19AE0A4
:104450000E947A05809180028160F5CF80E09AE029
:10446000D0CF81EE99E0CDCF90918002892F877FC8
:1044700093FF88608093800283FF03C085ED99E0FD
:10448000E7CF88EC99E0BDCF89EB99E00E947A05EF
:1044900080E999E00E947A058EE499E00E947A050D
:1044A00086E299E00E947A058CED98E00E947A05F8
:1044B00081EB98E0A6CF83EA98E00E947A050E94FB
:1044C000030F1F928F9389E898E09F938F930E9428
:1044D000130680910A011F928F9382E798E09F93C1
:1044E0008F930E941306809183011F928F938FE513
:1044F00098E09F938F930E94130680910B011F9267
:104500008F938CE498E09F938F930E9413060E94F0
:10451000C21C9F938F937F936F9385E398E09F9343
:104520008F930E9413068DB79EB746960FB6F894E8
:104530009EBF0FBE8DBF79CF80E298E062CF8D51D4
:104540003ECF80E008950C94A122CF93C82F809194
:1045500090028130D1F038F0823009F44DC01092D1
:10456000900280E010C0E0910C01F0910D0180817B
:104570008232B9F78C2F0E94A12281111EC08C2F8C
:104580000E9480218170CF910895E0910C01F091FB
:104590000D018081823271F38C2F0E94A322811140
:1045A0001BC0C431D9F060F4CB3071F0C031D1F010
:1045B0008DE497E00E947A0513C081E090E0E2CF9D
:1045C000C93261F0C833A1F78CE597E00E947A0503
:1045D00083E597E00E947A0581E0D4CF10929002A3
:1045E00080E0D0CF0E9428208FE497E00E947A05D7
:1045F00082E080939002F0CFC432C8F4CE3108F04C
:10460000BEC0CB30E1F040F4C73009F4CFC081EF39
:1046100095E00E947A0526C0C331C1F1C431B9F7D3
:1046200080918F02882351F110928F020AC0CB34FF
:1046300009F4BAC0C8F4C93299F3C83341F70E94EB
:10464000282080918F02882309F4C7C01F928F937E
:104650008BEE95E09F938F930E9413060F900F901F
:104660000F900F9081E08FCFC13509F497C0C2350C
:1046700009F48EC0CE3459F66AE091C080E096E02D
:104680000E947A0581E0809390027DCF8AED95E0CB
:104690000E947A0588EC95E00E947A0580911301CA
:1046A0001F928F9385EC95E09F938F930E94130642
:1046B00083EC95E00E947A0581EB95E00E947A05F3
:1046C000809112011F928F938EEA95E09F938F93B2
:1046D0000E9413068CEA95E00E947A058DE995E028
:1046E0000E947A05809111011F928F938AE995E0CB
:1046F0009F938F930E94130688E995E00E947A05A4
:1047000087E895E00E947A05809110011F928F93AF
:1047100084E895E09F938F930E94130682E895E0CA
:104720000E947A058DE695E00E947A0580910F013E
:104730001F928F938AE695E09F938F930E941306B2
:1047400088E695E00E947A0581E595E00E947A0569
:1047500080910E011F928F938EE495E09F938F932B
:104760000E9413068CE495E00E947A058DB79EB7EF
:1047700048960FB6F8949EBF0FBE8DBF62CFCE5144
:10478000EC2FF0E0E25DFE4F808180938F0259CFE5
:1047900061E080918F020E943F2053CF61E08091C1
:1047A0008F020E94E3204DCF6AE0F3CF8EE1809329
:1047B000130182E3809312018AE08093110184E166
:1047C0008093100188E080930F0188E280930E01AE
:1047D00083EF95E00E947A0534CF88EE95E019CFFB
:1047E0000E94F7236894B1110C94862408950E94C6
:1047F0006B2488F09F5798F0B92F9927B751B0F0E4
:10480000E1F0660F771F881F991F1AF0BA95C9F754
:1048100014C0B13091F00E948524B1E008950C9449
:104820008524672F782F8827B85F39F0B93FCCF3FC
:10483000869577956795B395D9F73EF490958095D1
:10484000709561957F4F8F4F9F4F0895E89409C0F1
:1048500097FB3EF490958095709561957F4F8F4FB3
:104860009F4F9923A9F0F92F96E9BB279395F695C9
:10487000879577956795B795F111F8CFFAF4BB0F47
:1048800011F460FF1BC06F5F7F4F8F4F9F4F16C0AB
:10489000882311F096E911C0772321F09EE8872F35
:1048A000762F05C0662371F096E8862F70E060E0F1
:1048B0002AF09A95660F771F881FDAF7880F96956A
:1048C000879597F9089557FD9058440F551F59F053
:1048D0005F3F71F04795880F97FB991F61F09F3FED
:1048E00079F087950895121613061406551FF2CF16
:1048F0004695F1DF08C0161617061806991FF1CF66
:1049000086957105610508940895E894BB2766278C
:104910007727CB0197F908950E949F240C941025C6
:104920000E94022538F00E94092520F0952311F0FD
:104930000C94F9240C94FF2411240C9486240E94D6
:10494000632470F3959FC1F3950F50E0551F629F4C
:10495000F001729FBB27F00DB11D639FAA27F00DD8
:10496000B11DAA1F649F6627B00DA11D661F829FFF
:104970002227B00DA11D621F739FB00DA11D621FE4
:10498000839FA00D611D221F749F3327A00D611D01
:10499000231F849F600D211D822F762F6A2F1124E3
:1049A0009F5750409AF0F1F088234AF0EE0FFF1F16
:1049B000BB1F661F771F881F91505040A9F79E3F6D
:1049C000510580F00C94F9240C9486245F3FE4F3A5
:1049D000983ED4F3869577956795B795F795E795C3
:1049E0009F5FC1F7FE2B880F911D9695879597F9CC
:1049F000089597F99F6780E870E060E008959FEF61
:104A000080EC089500240A94161617061806090665
:104A1000089500240A941216130614060506089534
:104A2000092E0394000C11F4882352F0BB0F40F4BC
:104A3000BF2B11F460FF04C06F5F7F4F8F4F9F4FFC
:104A40000895991B79E004C0991F961708F0961BEA
:104A5000881F7A95C9F78095089597FB072E16F45D
:104A6000009407D077FD09D00E94472507FC05D0A8
:104A70003EF4909581959F4F0895709561957F4F75
:104A80000895EE0FFF1F0590F491E02D0994AA1BE5
:104A9000BB1B51E107C0AA1FBB1FA617B70710F029
:104AA000A61BB70B881F991F5A95A9F7809590955B
:0A4AB000BC01CD010895F894FFCF7A
:104ABA00430736081108DD07A90701015E02280825
:104ACA00140A321E404D3622391903CC029602745A
:104ADA00023B02AE01C701E001F90119020001021D
:084AEA0003040506070809009A
:106800000000000000000000040005000600070072
:10681000080009000A000B000C000D000E000F001C
:1068200010001100120013001400150016001700CC
:10683000180019001A001B001C001D001E001F007C
:10684000200021002200230024002500260027002C
:10685000280000002A002B002C002D002E002F0005
:1068600030003100000033003400290036003700CA
:1068700038003900000000000000000000000000A7
:106880000000000000000000000000000000000008
:1068900000004900000000004C00000000004F0014
:1068A00050005100520000000000000000000000F5
:1068B00000000000000000000000000000000000D8
:1068C00000000000000000000000000000000000C8
:1068D00000000000000000000000000000000000B8
:1068E00000000000000000000000000000000000A8
:1068F000E000E100E200E300E400E500E60035002E
:00000001FF
